{
  "_format": "hh-sol-artifact-1",
  "contractName": "LandRegistry",
  "sourceName": "contracts/LandRegistry.sol",
  "abi": [
    {
      "inputs": [
        {
          "internalType": "string",
          "name": "baseURI",
          "type": "string"
        }
      ],
      "stateMutability": "nonpayable",
      "type": "constructor"
    },
    {
      "anonymous": false,
      "inputs": [
        {
          "indexed": true,
          "internalType": "address",
          "name": "account",
          "type": "address"
        },
        {
          "indexed": true,
          "internalType": "address",
          "name": "operator",
          "type": "address"
        },
        {
          "indexed": false,
          "internalType": "bool",
          "name": "approved",
          "type": "bool"
        }
      ],
      "name": "ApprovalForAll",
      "type": "event"
    },
    {
      "anonymous": false,
      "inputs": [
        {
          "indexed": true,
          "internalType": "address",
          "name": "government",
          "type": "address"
        },
        {
          "indexed": false,
          "internalType": "uint256",
          "name": "amount",
          "type": "uint256"
        }
      ],
      "name": "FeesWithdrawn",
      "type": "event"
    },
    {
      "anonymous": false,
      "inputs": [
        {
          "indexed": true,
          "internalType": "uint256",
          "name": "landId",
          "type": "uint256"
        },
        {
          "indexed": true,
          "internalType": "address",
          "name": "registrar",
          "type": "address"
        },
        {
          "indexed": false,
          "internalType": "string",
          "name": "location",
          "type": "string"
        },
        {
          "indexed": false,
          "internalType": "uint256",
          "name": "area",
          "type": "uint256"
        },
        {
          "indexed": false,
          "internalType": "uint256",
          "name": "pricePerShare",
          "type": "uint256"
        }
      ],
      "name": "LandRegistered",
      "type": "event"
    },
    {
      "anonymous": false,
      "inputs": [
        {
          "indexed": true,
          "internalType": "uint256",
          "name": "landId",
          "type": "uint256"
        },
        {
          "indexed": true,
          "internalType": "address",
          "name": "verifier",
          "type": "address"
        }
      ],
      "name": "LandVerified",
      "type": "event"
    },
    {
      "anonymous": false,
      "inputs": [
        {
          "indexed": false,
          "internalType": "uint256",
          "name": "totalLands",
          "type": "uint256"
        },
        {
          "indexed": false,
          "internalType": "uint256",
          "name": "totalSharesSold",
          "type": "uint256"
        },
        {
          "indexed": false,
          "internalType": "uint256",
          "name": "totalFeesCollected",
          "type": "uint256"
        }
      ],
      "name": "MetricsUpdated",
      "type": "event"
    },
    {
      "anonymous": false,
      "inputs": [
        {
          "indexed": true,
          "internalType": "bytes32",
          "name": "role",
          "type": "bytes32"
        },
        {
          "indexed": true,
          "internalType": "bytes32",
          "name": "previousAdminRole",
          "type": "bytes32"
        },
        {
          "indexed": true,
          "internalType": "bytes32",
          "name": "newAdminRole",
          "type": "bytes32"
        }
      ],
      "name": "RoleAdminChanged",
      "type": "event"
    },
    {
      "anonymous": false,
      "inputs": [
        {
          "indexed": true,
          "internalType": "bytes32",
          "name": "role",
          "type": "bytes32"
        },
        {
          "indexed": true,
          "internalType": "address",
          "name": "account",
          "type": "address"
        },
        {
          "indexed": true,
          "internalType": "address",
          "name": "sender",
          "type": "address"
        }
      ],
      "name": "RoleGranted",
      "type": "event"
    },
    {
      "anonymous": false,
      "inputs": [
        {
          "indexed": true,
          "internalType": "bytes32",
          "name": "role",
          "type": "bytes32"
        },
        {
          "indexed": true,
          "internalType": "address",
          "name": "account",
          "type": "address"
        },
        {
          "indexed": true,
          "internalType": "address",
          "name": "sender",
          "type": "address"
        }
      ],
      "name": "RoleRevoked",
      "type": "event"
    },
    {
      "anonymous": false,
      "inputs": [
        {
          "indexed": true,
          "internalType": "uint256",
          "name": "landId",
          "type": "uint256"
        },
        {
          "indexed": true,
          "internalType": "address",
          "name": "seller",
          "type": "address"
        },
        {
          "indexed": false,
          "internalType": "uint256",
          "name": "shares",
          "type": "uint256"
        },
        {
          "indexed": false,
          "internalType": "uint256",
          "name": "price",
          "type": "uint256"
        }
      ],
      "name": "ShareListed",
      "type": "event"
    },
    {
      "anonymous": false,
      "inputs": [
        {
          "indexed": true,
          "internalType": "uint256",
          "name": "landId",
          "type": "uint256"
        },
        {
          "indexed": true,
          "internalType": "address",
          "name": "seller",
          "type": "address"
        },
        {
          "indexed": true,
          "internalType": "address",
          "name": "buyer",
          "type": "address"
        },
        {
          "indexed": false,
          "internalType": "uint256",
          "name": "shares",
          "type": "uint256"
        },
        {
          "indexed": false,
          "internalType": "uint256",
          "name": "price",
          "type": "uint256"
        }
      ],
      "name": "ShareSold",
      "type": "event"
    },
    {
      "anonymous": false,
      "inputs": [
        {
          "indexed": true,
          "internalType": "uint256",
          "name": "landId",
          "type": "uint256"
        },
        {
          "indexed": true,
          "internalType": "address",
          "name": "buyer",
          "type": "address"
        },
        {
          "indexed": false,
          "internalType": "uint256",
          "name": "shares",
          "type": "uint256"
        },
        {
          "indexed": false,
          "internalType": "uint256",
          "name": "amount",
          "type": "uint256"
        }
      ],
      "name": "SharesPurchased",
      "type": "event"
    },
    {
      "anonymous": false,
      "inputs": [
        {
          "indexed": true,
          "internalType": "uint256",
          "name": "landId",
          "type": "uint256"
        },
        {
          "indexed": true,
          "internalType": "address",
          "name": "from",
          "type": "address"
        },
        {
          "indexed": true,
          "internalType": "address",
          "name": "to",
          "type": "address"
        },
        {
          "indexed": false,
          "internalType": "uint256",
          "name": "shares",
          "type": "uint256"
        }
      ],
      "name": "SharesTransferred",
      "type": "event"
    },
    {
      "anonymous": false,
      "inputs": [
        {
          "indexed": true,
          "internalType": "address",
          "name": "operator",
          "type": "address"
        },
        {
          "indexed": true,
          "internalType": "address",
          "name": "from",
          "type": "address"
        },
        {
          "indexed": true,
          "internalType": "address",
          "name": "to",
          "type": "address"
        },
        {
          "indexed": false,
          "internalType": "uint256[]",
          "name": "ids",
          "type": "uint256[]"
        },
        {
          "indexed": false,
          "internalType": "uint256[]",
          "name": "values",
          "type": "uint256[]"
        }
      ],
      "name": "TransferBatch",
      "type": "event"
    },
    {
      "anonymous": false,
      "inputs": [
        {
          "indexed": true,
          "internalType": "address",
          "name": "operator",
          "type": "address"
        },
        {
          "indexed": true,
          "internalType": "address",
          "name": "from",
          "type": "address"
        },
        {
          "indexed": true,
          "internalType": "address",
          "name": "to",
          "type": "address"
        },
        {
          "indexed": false,
          "internalType": "uint256",
          "name": "id",
          "type": "uint256"
        },
        {
          "indexed": false,
          "internalType": "uint256",
          "name": "value",
          "type": "uint256"
        }
      ],
      "name": "TransferSingle",
      "type": "event"
    },
    {
      "anonymous": false,
      "inputs": [
        {
          "indexed": false,
          "internalType": "string",
          "name": "value",
          "type": "string"
        },
        {
          "indexed": true,
          "internalType": "uint256",
          "name": "id",
          "type": "uint256"
        }
      ],
      "name": "URI",
      "type": "event"
    },
    {
      "inputs": [],
      "name": "BASIS_POINTS",
      "outputs": [
        {
          "internalType": "uint256",
          "name": "",
          "type": "uint256"
        }
      ],
      "stateMutability": "view",
      "type": "function"
    },
    {
      "inputs": [],
      "name": "CLIENT_ROLE",
      "outputs": [
        {
          "internalType": "bytes32",
          "name": "",
          "type": "bytes32"
        }
      ],
      "stateMutability": "view",
      "type": "function"
    },
    {
      "inputs": [],
      "name": "DEFAULT_ADMIN_ROLE",
      "outputs": [
        {
          "internalType": "bytes32",
          "name": "",
          "type": "bytes32"
        }
      ],
      "stateMutability": "view",
      "type": "function"
    },
    {
      "inputs": [],
      "name": "GOVERNMENT_ROLE",
      "outputs": [
        {
          "internalType": "bytes32",
          "name": "",
          "type": "bytes32"
        }
      ],
      "stateMutability": "view",
      "type": "function"
    },
    {
      "inputs": [],
      "name": "REGISTRAR_ROLE",
      "outputs": [
        {
          "internalType": "bytes32",
          "name": "",
          "type": "bytes32"
        }
      ],
      "stateMutability": "view",
      "type": "function"
    },
    {
      "inputs": [],
      "name": "TOKENS_PER_LAND",
      "outputs": [
        {
          "internalType": "uint256",
          "name": "",
          "type": "uint256"
        }
      ],
      "stateMutability": "view",
      "type": "function"
    },
    {
      "inputs": [],
      "name": "VERIFIER_ROLE",
      "outputs": [
        {
          "internalType": "bytes32",
          "name": "",
          "type": "bytes32"
        }
      ],
      "stateMutability": "view",
      "type": "function"
    },
    {
      "inputs": [
        {
          "internalType": "uint256",
          "name": "",
          "type": "uint256"
        }
      ],
      "name": "allLandIds",
      "outputs": [
        {
          "internalType": "uint256",
          "name": "",
          "type": "uint256"
        }
      ],
      "stateMutability": "view",
      "type": "function"
    },
    {
      "inputs": [
        {
          "internalType": "address",
          "name": "account",
          "type": "address"
        },
        {
          "internalType": "uint256",
          "name": "id",
          "type": "uint256"
        }
      ],
      "name": "balanceOf",
      "outputs": [
        {
          "internalType": "uint256",
          "name": "",
          "type": "uint256"
        }
      ],
      "stateMutability": "view",
      "type": "function"
    },
    {
      "inputs": [
        {
          "internalType": "address[]",
          "name": "accounts",
          "type": "address[]"
        },
        {
          "internalType": "uint256[]",
          "name": "ids",
          "type": "uint256[]"
        }
      ],
      "name": "balanceOfBatch",
      "outputs": [
        {
          "internalType": "uint256[]",
          "name": "",
          "type": "uint256[]"
        }
      ],
      "stateMutability": "view",
      "type": "function"
    },
    {
      "inputs": [
        {
          "internalType": "uint256",
          "name": "landId",
          "type": "uint256"
        }
      ],
      "name": "buyListedShares",
      "outputs": [],
      "stateMutability": "payable",
      "type": "function"
    },
    {
      "inputs": [],
      "name": "getAllLands",
      "outputs": [
        {
          "internalType": "uint256[]",
          "name": "",
          "type": "uint256[]"
        }
      ],
      "stateMutability": "view",
      "type": "function"
    },
    {
      "inputs": [
        {
          "internalType": "uint256",
          "name": "landId",
          "type": "uint256"
        }
      ],
      "name": "getCompleteOwnershipHistory",
      "outputs": [
        {
          "components": [
            {
              "internalType": "address",
              "name": "owner",
              "type": "address"
            },
            {
              "internalType": "uint256",
              "name": "shares",
              "type": "uint256"
            },
            {
              "internalType": "uint256",
              "name": "timestamp",
              "type": "uint256"
            },
            {
              "internalType": "string",
              "name": "action",
              "type": "string"
            },
            {
              "internalType": "address",
              "name": "from",
              "type": "address"
            },
            {
              "internalType": "address",
              "name": "to",
              "type": "address"
            }
          ],
          "internalType": "struct LandRegistry.OwnershipRecord[]",
          "name": "",
          "type": "tuple[]"
        }
      ],
      "stateMutability": "view",
      "type": "function"
    },
    {
      "inputs": [
        {
          "internalType": "uint256",
          "name": "landId",
          "type": "uint256"
        }
      ],
      "name": "getLandDetails",
      "outputs": [
        {
          "components": [
            {
              "internalType": "string",
              "name": "location",
              "type": "string"
            },
            {
              "internalType": "uint256",
              "name": "area",
              "type": "uint256"
            },
            {
              "internalType": "uint256",
              "name": "pricePerShare",
              "type": "uint256"
            },
            {
              "internalType": "bool",
              "name": "isVerified",
              "type": "bool"
            },
            {
              "internalType": "address",
              "name": "registrar",
              "type": "address"
            },
            {
              "internalType": "address",
              "name": "verifier",
              "type": "address"
            }
          ],
          "internalType": "struct LandRegistry.Land",
          "name": "",
          "type": "tuple"
        }
      ],
      "stateMutability": "view",
      "type": "function"
    },
    {
      "inputs": [],
      "name": "getMetrics",
      "outputs": [
        {
          "internalType": "uint256",
          "name": "",
          "type": "uint256"
        },
        {
          "internalType": "uint256",
          "name": "",
          "type": "uint256"
        },
        {
          "internalType": "uint256",
          "name": "",
          "type": "uint256"
        }
      ],
      "stateMutability": "view",
      "type": "function"
    },
    {
      "inputs": [
        {
          "internalType": "bytes32",
          "name": "role",
          "type": "bytes32"
        }
      ],
      "name": "getRoleAdmin",
      "outputs": [
        {
          "internalType": "bytes32",
          "name": "",
          "type": "bytes32"
        }
      ],
      "stateMutability": "view",
      "type": "function"
    },
    {
      "inputs": [
        {
          "internalType": "uint256",
          "name": "landId",
          "type": "uint256"
        }
      ],
      "name": "getShareOwnership",
      "outputs": [
        {
          "internalType": "address[]",
          "name": "owners",
          "type": "address[]"
        },
        {
          "internalType": "uint256[]",
          "name": "balances",
          "type": "uint256[]"
        }
      ],
      "stateMutability": "view",
      "type": "function"
    },
    {
      "inputs": [
        {
          "internalType": "uint256",
          "name": "landId",
          "type": "uint256"
        }
      ],
      "name": "getTransferHistory",
      "outputs": [
        {
          "components": [
            {
              "internalType": "address",
              "name": "from",
              "type": "address"
            },
            {
              "internalType": "address",
              "name": "to",
              "type": "address"
            },
            {
              "internalType": "uint256",
              "name": "shares",
              "type": "uint256"
            },
            {
              "internalType": "uint256",
              "name": "timestamp",
              "type": "uint256"
            },
            {
              "internalType": "uint256",
              "name": "price",
              "type": "uint256"
            }
          ],
          "internalType": "struct LandRegistry.TransferRecord[]",
          "name": "",
          "type": "tuple[]"
        }
      ],
      "stateMutability": "view",
      "type": "function"
    },
    {
      "inputs": [
        {
          "internalType": "bytes32",
          "name": "role",
          "type": "bytes32"
        },
        {
          "internalType": "address",
          "name": "account",
          "type": "address"
        }
      ],
      "name": "grantRole",
      "outputs": [],
      "stateMutability": "nonpayable",
      "type": "function"
    },
    {
      "inputs": [
        {
          "internalType": "bytes32",
          "name": "role",
          "type": "bytes32"
        },
        {
          "internalType": "address",
          "name": "account",
          "type": "address"
        }
      ],
      "name": "hasRole",
      "outputs": [
        {
          "internalType": "bool",
          "name": "",
          "type": "bool"
        }
      ],
      "stateMutability": "view",
      "type": "function"
    },
    {
      "inputs": [
        {
          "internalType": "address",
          "name": "account",
          "type": "address"
        },
        {
          "internalType": "address",
          "name": "operator",
          "type": "address"
        }
      ],
      "name": "isApprovedForAll",
      "outputs": [
        {
          "internalType": "bool",
          "name": "",
          "type": "bool"
        }
      ],
      "stateMutability": "view",
      "type": "function"
    },
    {
      "inputs": [
        {
          "internalType": "uint256",
          "name": "",
          "type": "uint256"
        },
        {
          "internalType": "uint256",
          "name": "",
          "type": "uint256"
        }
      ],
      "name": "landBalances",
      "outputs": [
        {
          "internalType": "uint256",
          "name": "",
          "type": "uint256"
        }
      ],
      "stateMutability": "view",
      "type": "function"
    },
    {
      "inputs": [
        {
          "internalType": "uint256",
          "name": "",
          "type": "uint256"
        },
        {
          "internalType": "uint256",
          "name": "",
          "type": "uint256"
        }
      ],
      "name": "landOwners",
      "outputs": [
        {
          "internalType": "address",
          "name": "",
          "type": "address"
        }
      ],
      "stateMutability": "view",
      "type": "function"
    },
    {
      "inputs": [
        {
          "internalType": "uint256",
          "name": "",
          "type": "uint256"
        }
      ],
      "name": "lands",
      "outputs": [
        {
          "internalType": "string",
          "name": "location",
          "type": "string"
        },
        {
          "internalType": "uint256",
          "name": "area",
          "type": "uint256"
        },
        {
          "internalType": "uint256",
          "name": "pricePerShare",
          "type": "uint256"
        },
        {
          "internalType": "bool",
          "name": "isVerified",
          "type": "bool"
        },
        {
          "internalType": "address",
          "name": "registrar",
          "type": "address"
        },
        {
          "internalType": "address",
          "name": "verifier",
          "type": "address"
        }
      ],
      "stateMutability": "view",
      "type": "function"
    },
    {
      "inputs": [
        {
          "internalType": "uint256",
          "name": "landId",
          "type": "uint256"
        },
        {
          "internalType": "uint256",
          "name": "shares",
          "type": "uint256"
        },
        {
          "internalType": "uint256",
          "name": "price",
          "type": "uint256"
        }
      ],
      "name": "listShares",
      "outputs": [],
      "stateMutability": "nonpayable",
      "type": "function"
    },
    {
      "inputs": [
        {
          "internalType": "address",
          "name": "operator",
          "type": "address"
        },
        {
          "internalType": "address",
          "name": "from",
          "type": "address"
        },
        {
          "internalType": "uint256[]",
          "name": "ids",
          "type": "uint256[]"
        },
        {
          "internalType": "uint256[]",
          "name": "values",
          "type": "uint256[]"
        },
        {
          "internalType": "bytes",
          "name": "data",
          "type": "bytes"
        }
      ],
      "name": "onERC1155BatchReceived",
      "outputs": [
        {
          "internalType": "bytes4",
          "name": "",
          "type": "bytes4"
        }
      ],
      "stateMutability": "pure",
      "type": "function"
    },
    {
      "inputs": [
        {
          "internalType": "address",
          "name": "operator",
          "type": "address"
        },
        {
          "internalType": "address",
          "name": "from",
          "type": "address"
        },
        {
          "internalType": "uint256",
          "name": "id",
          "type": "uint256"
        },
        {
          "internalType": "uint256",
          "name": "value",
          "type": "uint256"
        },
        {
          "internalType": "bytes",
          "name": "data",
          "type": "bytes"
        }
      ],
      "name": "onERC1155Received",
      "outputs": [
        {
          "internalType": "bytes4",
          "name": "",
          "type": "bytes4"
        }
      ],
      "stateMutability": "pure",
      "type": "function"
    },
    {
      "inputs": [
        {
          "internalType": "uint256",
          "name": "",
          "type": "uint256"
        },
        {
          "internalType": "uint256",
          "name": "",
          "type": "uint256"
        }
      ],
      "name": "ownershipHistory",
      "outputs": [
        {
          "internalType": "address",
          "name": "owner",
          "type": "address"
        },
        {
          "internalType": "uint256",
          "name": "shares",
          "type": "uint256"
        },
        {
          "internalType": "uint256",
          "name": "timestamp",
          "type": "uint256"
        },
        {
          "internalType": "string",
          "name": "action",
          "type": "string"
        },
        {
          "internalType": "address",
          "name": "from",
          "type": "address"
        },
        {
          "internalType": "address",
          "name": "to",
          "type": "address"
        }
      ],
      "stateMutability": "view",
      "type": "function"
    },
    {
      "inputs": [
        {
          "internalType": "uint256",
          "name": "landId",
          "type": "uint256"
        },
        {
          "internalType": "uint256",
          "name": "shares",
          "type": "uint256"
        }
      ],
      "name": "purchaseShares",
      "outputs": [],
      "stateMutability": "payable",
      "type": "function"
    },
    {
      "inputs": [
        {
          "internalType": "string",
          "name": "location",
          "type": "string"
        },
        {
          "internalType": "uint256",
          "name": "area",
          "type": "uint256"
        },
        {
          "internalType": "uint256",
          "name": "pricePerShare",
          "type": "uint256"
        }
      ],
      "name": "registerLand",
      "outputs": [],
      "stateMutability": "nonpayable",
      "type": "function"
    },
    {
      "inputs": [
        {
          "internalType": "bytes32",
          "name": "role",
          "type": "bytes32"
        },
        {
          "internalType": "address",
          "name": "account",
          "type": "address"
        }
      ],
      "name": "renounceRole",
      "outputs": [],
      "stateMutability": "nonpayable",
      "type": "function"
    },
    {
      "inputs": [
        {
          "internalType": "bytes32",
          "name": "role",
          "type": "bytes32"
        },
        {
          "internalType": "address",
          "name": "account",
          "type": "address"
        }
      ],
      "name": "revokeRole",
      "outputs": [],
      "stateMutability": "nonpayable",
      "type": "function"
    },
    {
      "inputs": [
        {
          "internalType": "address",
          "name": "from",
          "type": "address"
        },
        {
          "internalType": "address",
          "name": "to",
          "type": "address"
        },
        {
          "internalType": "uint256[]",
          "name": "ids",
          "type": "uint256[]"
        },
        {
          "internalType": "uint256[]",
          "name": "amounts",
          "type": "uint256[]"
        },
        {
          "internalType": "bytes",
          "name": "data",
          "type": "bytes"
        }
      ],
      "name": "safeBatchTransferFrom",
      "outputs": [],
      "stateMutability": "nonpayable",
      "type": "function"
    },
    {
      "inputs": [
        {
          "internalType": "address",
          "name": "from",
          "type": "address"
        },
        {
          "internalType": "address",
          "name": "to",
          "type": "address"
        },
        {
          "internalType": "uint256",
          "name": "id",
          "type": "uint256"
        },
        {
          "internalType": "uint256",
          "name": "amount",
          "type": "uint256"
        },
        {
          "internalType": "bytes",
          "name": "data",
          "type": "bytes"
        }
      ],
      "name": "safeTransferFrom",
      "outputs": [],
      "stateMutability": "nonpayable",
      "type": "function"
    },
    {
      "inputs": [
        {
          "internalType": "address",
          "name": "operator",
          "type": "address"
        },
        {
          "internalType": "bool",
          "name": "approved",
          "type": "bool"
        }
      ],
      "name": "setApprovalForAll",
      "outputs": [],
      "stateMutability": "nonpayable",
      "type": "function"
    },
    {
      "inputs": [
        {
          "internalType": "uint256",
          "name": "",
          "type": "uint256"
        },
        {
          "internalType": "address",
          "name": "",
          "type": "address"
        }
      ],
      "name": "shareBalances",
      "outputs": [
        {
          "internalType": "uint256",
          "name": "",
          "type": "uint256"
        }
      ],
      "stateMutability": "view",
      "type": "function"
    },
    {
      "inputs": [
        {
          "internalType": "uint256",
          "name": "",
          "type": "uint256"
        }
      ],
      "name": "shareListings",
      "outputs": [
        {
          "internalType": "address",
          "name": "seller",
          "type": "address"
        },
        {
          "internalType": "uint256",
          "name": "shares",
          "type": "uint256"
        },
        {
          "internalType": "uint256",
          "name": "price",
          "type": "uint256"
        },
        {
          "internalType": "bool",
          "name": "isActive",
          "type": "bool"
        }
      ],
      "stateMutability": "view",
      "type": "function"
    },
    {
      "inputs": [
        {
          "internalType": "bytes4",
          "name": "interfaceId",
          "type": "bytes4"
        }
      ],
      "name": "supportsInterface",
      "outputs": [
        {
          "internalType": "bool",
          "name": "",
          "type": "bool"
        }
      ],
      "stateMutability": "view",
      "type": "function"
    },
    {
      "inputs": [],
      "name": "totalFeesCollected",
      "outputs": [
        {
          "internalType": "uint256",
          "name": "",
          "type": "uint256"
        }
      ],
      "stateMutability": "view",
      "type": "function"
    },
    {
      "inputs": [],
      "name": "totalLands",
      "outputs": [
        {
          "internalType": "uint256",
          "name": "",
          "type": "uint256"
        }
      ],
      "stateMutability": "view",
      "type": "function"
    },
    {
      "inputs": [],
      "name": "totalSharesSold",
      "outputs": [
        {
          "internalType": "uint256",
          "name": "",
          "type": "uint256"
        }
      ],
      "stateMutability": "view",
      "type": "function"
    },
    {
      "inputs": [
        {
          "internalType": "uint256",
          "name": "",
          "type": "uint256"
        },
        {
          "internalType": "uint256",
          "name": "",
          "type": "uint256"
        }
      ],
      "name": "transferHistory",
      "outputs": [
        {
          "internalType": "address",
          "name": "from",
          "type": "address"
        },
        {
          "internalType": "address",
          "name": "to",
          "type": "address"
        },
        {
          "internalType": "uint256",
          "name": "shares",
          "type": "uint256"
        },
        {
          "internalType": "uint256",
          "name": "timestamp",
          "type": "uint256"
        },
        {
          "internalType": "uint256",
          "name": "price",
          "type": "uint256"
        }
      ],
      "stateMutability": "view",
      "type": "function"
    },
    {
      "inputs": [
        {
          "internalType": "uint256",
          "name": "landId",
          "type": "uint256"
        },
        {
          "internalType": "address",
          "name": "to",
          "type": "address"
        },
        {
          "internalType": "uint256",
          "name": "shares",
          "type": "uint256"
        }
      ],
      "name": "transferShares",
      "outputs": [],
      "stateMutability": "nonpayable",
      "type": "function"
    },
    {
      "inputs": [
        {
          "internalType": "uint256",
          "name": "newFee",
          "type": "uint256"
        }
      ],
      "name": "updateVerificationFee",
      "outputs": [],
      "stateMutability": "nonpayable",
      "type": "function"
    },
    {
      "inputs": [
        {
          "internalType": "uint256",
          "name": "",
          "type": "uint256"
        }
      ],
      "name": "uri",
      "outputs": [
        {
          "internalType": "string",
          "name": "",
          "type": "string"
        }
      ],
      "stateMutability": "view",
      "type": "function"
    },
    {
      "inputs": [],
      "name": "verificationFee",
      "outputs": [
        {
          "internalType": "uint256",
          "name": "",
          "type": "uint256"
        }
      ],
      "stateMutability": "view",
      "type": "function"
    },
    {
      "inputs": [
        {
          "internalType": "uint256",
          "name": "landId",
          "type": "uint256"
        }
      ],
      "name": "verifyLand",
      "outputs": [],
      "stateMutability": "payable",
      "type": "function"
    },
    {
      "inputs": [],
      "name": "withdrawFees",
      "outputs": [],
      "stateMutability": "nonpayable",
      "type": "function"
    }
  ],
  "bytecode": "0x60806040523480156200001157600080fd5b506040516200490138038062004901833981016040819052620000349162000149565b80620000408162000074565b5060016004556007620000548282620002ad565b506200006260003362000086565b50662386f26fc1000060065562000379565b6002620000828282620002ad565b5050565b60008281526003602090815260408083206001600160a01b038516845290915290205462000082908390839060ff16620000825760008281526003602090815260408083206001600160a01b03851684529091529020805460ff19166001179055620000ef3390565b6001600160a01b0316816001600160a01b0316837f2f8788117e7eff1d82e926ec794901d17c78024a50270940304540a733656f0d60405160405180910390a45050565b634e487b7160e01b600052604160045260246000fd5b600060208083850312156200015d57600080fd5b82516001600160401b03808211156200017557600080fd5b818501915085601f8301126200018a57600080fd5b8151818111156200019f576200019f62000133565b604051601f8201601f19908116603f01168101908382118183101715620001ca57620001ca62000133565b816040528281528886848701011115620001e357600080fd5b600093505b82841015620002075784840186015181850187015292850192620001e8565b600086848301015280965050505050505092915050565b600181811c908216806200023357607f821691505b6020821081036200025457634e487b7160e01b600052602260045260246000fd5b50919050565b601f821115620002a857600081815260208120601f850160051c81016020861015620002835750805b601f850160051c820191505b81811015620002a4578281556001016200028f565b5050505b505050565b81516001600160401b03811115620002c957620002c962000133565b620002e181620002da84546200021e565b846200025a565b602080601f831160018114620003195760008415620003005750858301515b600019600386901b1c1916600185901b178555620002a4565b600085815260208120601f198616915b828110156200034a5788860151825594840194600190910190840162000329565b5085821015620003695787850151600019600388901b60f8161c191681555b5050505050600190811b01905550565b61457880620003896000396000f3fe6080604052600436106102925760003560e01c80639cbed5821161015a578063d547741f116100c1578063eae6f6521161007a578063eae6f65214610942578063f23a6e6114610964578063f242432a14610991578063f68e9553146109b1578063f9c43bdf146109e5578063fe0cb7dc146109f857600080fd5b8063d547741f1461080a578063dedaff541461082a578063e1f1c4a71461087d578063e261f1e514610893578063e7705db6146108c5578063e985e9c5146108f957600080fd5b8063bc197c8111610113578063bc197c811461071c578063c92530a714610764578063c9cf2adc14610777578063ccd9c0b2146107a9578063d2bcdc60146107d7578063d4309f4b146107ea57600080fd5b80639cbed5821461065b578063a217fddf1461068f578063a22cb465146106a4578063a8c278a2146106c4578063b19b9326146106da578063b7b6e5431461070757600080fd5b8063477bbc3c116101fe57806373aff5af116101b757806373aff5af1461052c5780637606f7811461054257806379a722881461057357806384b9a6e6146105ee5780638bb27d021461060e57806391d148541461063b57600080fd5b8063477bbc3c1461045c5780634e1273f414610471578063514b72ba1461049e578063562d2543146104be5780635b2cdb22146104de57806360c6d8ae1461051657600080fd5b8063248a9ca311610250578063248a9ca31461037f5780632eb2c2d6146103af5780632f2ff15d146103cf578063342b10ca146103ef57806336568abe14610427578063476343ee1461044757600080fd5b8062fdd58e1461029757806301ffc9a7146102ca57806307b8302c146102fa5780630bd9e2a71461031a5780630e89341c1461033c5780631d8de06314610369575b600080fd5b3480156102a357600080fd5b506102b76102b23660046135f0565b610a25565b6040519081526020015b60405180910390f35b3480156102d657600080fd5b506102ea6102e5366004613630565b610abe565b60405190151581526020016102c1565b34801561030657600080fd5b506102b761031536600461364d565b610ac9565b34801561032657600080fd5b5061033a61033536600461366f565b610afa565b005b34801561034857600080fd5b5061035c61035736600461369b565b610c71565b6040516102c19190613704565b34801561037557600080fd5b506102b7600d5481565b34801561038b57600080fd5b506102b761039a36600461369b565b60009081526003602052604090206001015490565b3480156103bb57600080fd5b5061033a6103ca36600461386a565b610d05565b3480156103db57600080fd5b5061033a6103ea366004613913565b610d51565b3480156103fb57600080fd5b506102b761040a366004613913565b600960209081526000928352604080842090915290825290205481565b34801561043357600080fd5b5061033a610442366004613913565b610daf565b34801561045357600080fd5b5061033a610e29565b34801561046857600080fd5b506102b7606481565b34801561047d57600080fd5b5061049161048c36600461393f565b610ed7565b6040516102c19190613a44565b3480156104aa57600080fd5b506102b76104b936600461369b565b611000565b3480156104ca57600080fd5b5061033a6104d9366004613a57565b611021565b3480156104ea57600080fd5b506104fe6104f936600461364d565b61139a565b6040516001600160a01b0390911681526020016102c1565b34801561052257600080fd5b506102b7600f5481565b34801561053857600080fd5b506102b7600e5481565b34801561054e57600080fd5b50600d54600e54600f54604080519384526020840192909252908201526060016102c1565b34801561057f57600080fd5b506105c261058e36600461369b565b600a6020526000908152604090208054600182015460028301546003909301546001600160a01b0390921692909160ff1684565b604080516001600160a01b039095168552602085019390935291830152151560608201526080016102c1565b3480156105fa57600080fd5b5061033a610609366004613ab8565b6113d2565b34801561061a57600080fd5b5061062e61062936600461369b565b611891565b6040516102c19190613aed565b34801561064757600080fd5b506102ea610656366004613913565b61193d565b34801561066757600080fd5b506102b77fd9d062b29c8756d894f301c5167d214c34d627724cd7fc859ab9329c9330cf5181565b34801561069b57600080fd5b506102b7600081565b3480156106b057600080fd5b5061033a6106bf366004613b67565b611968565b3480156106d057600080fd5b506102b760065481565b3480156106e657600080fd5b506106fa6106f536600461369b565b611973565b6040516102c19190613ba3565b34801561071357600080fd5b50610491611abd565b34801561072857600080fd5b5061074b610737366004613cde565b63bc197c8160e01b98975050505050505050565b6040516001600160e01b031990911681526020016102c1565b61033a61077236600461369b565b611b15565b34801561078357600080fd5b5061079761079236600461364d565b611f98565b6040516102c196959493929190613d98565b3480156107b557600080fd5b506107c96107c436600461369b565b61208d565b6040516102c1929190613de1565b61033a6107e536600461364d565b61215c565b3480156107f657600080fd5b5061033a61080536600461369b565b612536565b34801561081657600080fd5b5061033a610825366004613913565b612566565b34801561083657600080fd5b5061084a61084536600461364d565b6125c0565b604080516001600160a01b039687168152959094166020860152928401919091526060830152608082015260a0016102c1565b34801561088957600080fd5b506102b761271081565b34801561089f57600080fd5b506108b36108ae36600461369b565b61261b565b6040516102c196959493929190613e41565b3480156108d157600080fd5b506102b77f0ce23c3e399818cfee81a7ab0880f714e53d7672b08df0fa62f2843416e1ea0981565b34801561090557600080fd5b506102ea610914366004613e89565b6001600160a01b03918216600090815260016020908152604080832093909416825291909152205460ff1690565b34801561094e57600080fd5b506102b760008051602061452383398151915281565b34801561097057600080fd5b5061074b61097f366004613eb3565b63f23a6e6160e01b9695505050505050565b34801561099d57600080fd5b5061033a6109ac366004613f2a565b6126e9565b3480156109bd57600080fd5b506102b77fedcc084d3dcd65a1f7f23c65c46722faca6953d28e43150a467cf43e5c30923881565b61033a6109f336600461369b565b61272e565b348015610a0457600080fd5b50610a18610a1336600461369b565b612933565b6040516102c19190613f8e565b60006001600160a01b038316610a955760405162461bcd60e51b815260206004820152602a60248201527f455243313135353a2061646472657373207a65726f206973206e6f742061207660448201526930b634b21037bbb732b960b11b60648201526084015b60405180910390fd5b506000818152602081815260408083206001600160a01b03861684529091529020545b92915050565b6000610ab882612a5c565b600c6020528160005260406000208181548110610ae557600080fd5b90600052602060002001600091509150505481565b600080516020614523833981519152610b1281612a81565b610b1a612a8b565b6000848152600960209081526040808320338452909152902054831115610b795760405162461bcd60e51b8152602060048201526013602482015272496e73756666696369656e742073686172657360681b6044820152606401610a8c565b60008211610bb95760405162461bcd60e51b815260206004820152600d60248201526c496e76616c696420707269636560981b6044820152606401610a8c565b6040805160808101825233808252602080830187815283850187815260016060860181815260008c8152600a8652889020965187546001600160a01b0319166001600160a01b03909116178755925190860155516002850155516003909301805460ff19169315159390931790925582518681529182018590529186917fde0f68b04f321080776667d3ded5c39f5a4e99d49c29c426a1b78bd5e4a6ca0a910160405180910390a3610c6b6001600455565b50505050565b606060028054610c8090613ff8565b80601f0160208091040260200160405190810160405280929190818152602001828054610cac90613ff8565b8015610cf95780601f10610cce57610100808354040283529160200191610cf9565b820191906000526020600020905b815481529060010190602001808311610cdc57829003601f168201915b50505050509050919050565b6001600160a01b038516331480610d215750610d218533610914565b610d3d5760405162461bcd60e51b8152600401610a8c90614032565b610d4a8585858585612ae4565b5050505050565b610d5c60003361193d565b610da15760405162461bcd60e51b815260206004820152601660248201527521b0b63632b91034b9903737ba1030b71030b236b4b760511b6044820152606401610a8c565b610dab8282612cc1565b5050565b6001600160a01b0381163314610e1f5760405162461bcd60e51b815260206004820152602f60248201527f416363657373436f6e74726f6c3a2063616e206f6e6c792072656e6f756e636560448201526e103937b632b9903337b91039b2b63360891b6064820152608401610a8c565b610dab8282612ce6565b7fd9d062b29c8756d894f301c5167d214c34d627724cd7fc859ab9329c9330cf51610e5381612a81565b610e5b612a8b565b600f80546000918290556040519091339183156108fc0291849190818181858888f19350505050158015610e93573d6000803e3d6000fd5b5060405181815233907fc0819c13be868895eb93e40eaceb96de976442fa1d404e5c55f14bb65a8c489a9060200160405180910390a250610ed46001600455565b50565b60608151835114610f3c5760405162461bcd60e51b815260206004820152602960248201527f455243313135353a206163636f756e747320616e6420696473206c656e677468604482015268040dad2e6dac2e8c6d60bb1b6064820152608401610a8c565b600083516001600160401b03811115610f5757610f57613717565b604051908082528060200260200182016040528015610f80578160200160208202803683370190505b50905060005b8451811015610ff857610fcb858281518110610fa457610fa4614080565b6020026020010151858381518110610fbe57610fbe614080565b6020026020010151610a25565b828281518110610fdd57610fdd614080565b6020908102919091010152610ff1816140ac565b9050610f86565b509392505050565b6010818154811061101057600080fd5b600091825260209091200154905081565b7fedcc084d3dcd65a1f7f23c65c46722faca6953d28e43150a467cf43e5c30923861104b81612a81565b611053612a8b565b61107d7fedcc084d3dcd65a1f7f23c65c46722faca6953d28e43150a467cf43e5c3092383361193d565b6110c95760405162461bcd60e51b815260206004820152601960248201527f43616c6c6572206973206e6f74206120726567697374726172000000000000006044820152606401610a8c565b6110d7600580546001019055565b60006110e260055490565b6040805160c081018252878152602080820188905281830187905260006060830181905233608084015260a08301819052848152600890915291909120815192935090918190611132908261410b565b506020828101516001838101919091556040808501516002850155606085015160038501805460808801516001600160a81b0319909116921515610100600160a81b031916929092176101006001600160a01b039384160217905560a090950151600490940180546001600160a01b031916949095169390931790935560108054938401815560009081527f1b6847dc741a1b0cd08d278845f9d819d87b734759afb55fe2de5cb82a9ae67290930184905581519081019091529081526111ff9030908390606490612d4d565b6000818152601160209081526040808320815160c08101835230808252606482860190815242838601908152855180870190965260078652661253925512505360ca1b86880152606084019586526080840188905260a084019290925283546001808201865594885295909620825160069096020180546001600160a01b0319166001600160a01b03909616959095178555945191840191909155925160028301555160038201906112b1908261410b565b5060808201516004820180546001600160a01b03199081166001600160a01b039384161790915560a090930151600590920180549093169116179055600d80549060006112fd836140ac565b9190505550336001600160a01b0316817f0f22631b187cee535d0866556a899c9eecd339f80c9703e1057407b9f452bc1c878787604051611340939291906141ca565b60405180910390a3600d54600e54600f5460408051938452602084019290925282820152517f30b47c3a685e507da227a870550a387d376e03da27ad5b6a1d8c7517eb2d9b2f9181900360600190a150610c6b6001600455565b600b60205281600052604060002081815481106113b657600080fd5b6000918252602090912001546001600160a01b03169150829050565b6000805160206145238339815191526113ea81612a81565b6113f2612a8b565b60008481526009602090815260408083203384529091529020548211156114515760405162461bcd60e51b8152602060048201526013602482015272496e73756666696369656e742073686172657360681b6044820152606401610a8c565b6001600160a01b03831661149b5760405162461bcd60e51b8152602060048201526011602482015270125b9d985b1a59081c9958da5c1a595b9d607a1b6044820152606401610a8c565b6000848152600960209081526040808320338452909152812080548492906114c49084906141ef565b909155505060008481526009602090815260408083206001600160a01b0387168452909152812080548492906114fb908490614202565b9250508190555061151e3384868560405180602001604052806000815250612e61565b6000805b6000868152600b60205260409020548110156115db576000868152600b6020526040902080546001600160a01b03871691908390811061156457611564614080565b6000918252602090912001546001600160a01b0316036115c9576000868152600c602052604090208054859190839081106115a1576115a1614080565b9060005260206000200160008282546115ba9190614202565b90915550600192506115db9050565b806115d3816140ac565b915050611522565b5080611635576000858152600b602090815260408083208054600180820183559185528385200180546001600160a01b0319166001600160a01b038a16179055888452600c83529083208054918201815583529120018390555b6000858152601160209081526040808320815160c0810183526001600160a01b038981168083528286018a815242848701908152865180880190975260088752672a2920a729a322a960c11b878901526060850196875233608086015260a085019290925284546001808201875595895296909720835160069097020180546001600160a01b03191696909216959095178155945191850191909155915160028401555190919060038201906116eb908261410b565b5060808201518160040160006101000a8154816001600160a01b0302191690836001600160a01b0316021790555060a08201518160050160006101000a8154816001600160a01b0302191690836001600160a01b031602179055505050601260008681526020019081526020016000206040518060a00160405280336001600160a01b03168152602001866001600160a01b031681526020018581526020014281526020016000815250908060018154018082558091505060019003906000526020600020906005020160009091909190915060008201518160000160006101000a8154816001600160a01b0302191690836001600160a01b0316021790555060208201518160010160006101000a8154816001600160a01b0302191690836001600160a01b031602179055506040820151816002015560608201518160030155608082015181600401555050836001600160a01b0316336001600160a01b0316867f78dc4ab325d618a4100f0b44da2f25725cd94b780060f6b9e87065e9c0b12ebd8660405161187e91815260200190565b60405180910390a450610c6b6001600455565b606060126000838152602001908152602001600020805480602002602001604051908101604052809291908181526020016000905b828210156119325760008481526020908190206040805160a0810182526005860290920180546001600160a01b039081168452600180830154909116848601526002820154928401929092526003810154606084015260040154608083015290835290920191016118c6565b505050509050919050565b60009182526003602090815260408084206001600160a01b0393909316845291905290205460ff1690565b610dab338383612f8b565b606060116000838152602001908152602001600020805480602002602001604051908101604052809291908181526020016000905b828210156119325760008481526020908190206040805160c0810182526006860290920180546001600160a01b03168352600181015493830193909352600283015490820152600382018054919291606084019190611a0690613ff8565b80601f0160208091040260200160405190810160405280929190818152602001828054611a3290613ff8565b8015611a7f5780601f10611a5457610100808354040283529160200191611a7f565b820191906000526020600020905b815481529060010190602001808311611a6257829003601f168201915b505050918352505060048201546001600160a01b039081166020808401919091526005909301541660409091015290825260019290920191016119a8565b60606010805480602002602001604051908101604052809291908181526020018280548015611b0b57602002820191906000526020600020905b815481526020019060010190808311611af7575b5050505050905090565b600080516020614523833981519152611b2d81612a81565b611b35612a8b565b6000828152600a60205260409020600381015460ff16611b8b5760405162461bcd60e51b81526020600482015260116024820152704e6f20616374697665206c697374696e6760781b6044820152606401610a8c565b8060020154341015611bd65760405162461bcd60e51b8152602060048201526014602482015273125b9cdd59999a58da595b9d081c185e5b595b9d60621b6044820152606401610a8c565b6001810154600084815260096020908152604080832085546001600160a01b0316845290915281208054909190611c0e9084906141ef565b90915550506001810154600084815260096020908152604080832033845290915281208054909190611c41908490614202565b909155505080546001820154604080516020810190915260008152611c74926001600160a01b0316913391879190612e61565b6000805b6000858152600b6020526040902054811015611d2a576000858152600b60205260409020805433919083908110611cb157611cb1614080565b6000918252602090912001546001600160a01b031603611d185760018301546000868152600c60205260409020805483908110611cf057611cf0614080565b906000526020600020016000828254611d099190614202565b9091555060019250611d2a9050565b80611d22816140ac565b915050611c78565b5080611d82576000848152600b602090815260408083208054600181810183559185528385200180546001600160a01b03191633179055878452600c8352908320858201548154928301825590845291909220909101555b6000848152601160209081526040808320815160c08101835233808252600188810154838701908152428487019081528651808801909752600487526353414c4560e01b87890152606085019687528a546001600160a01b03908116608087015260a08601949094528554808401875595895296909720835160069095020180546001600160a01b0319169490921693909317815594519185019190915591516002840155519091906003820190611e3a908261410b565b50608082810151600483810180546001600160a01b03199081166001600160a01b039485161790915560a09586015160059586018054831691851691909117905560008a81526012602090815260408083208151998a0182528b5487168a52338a840190815260018d8101548c85019081524260608e01908152349b8e018c8152855480850187559589529688209d5194909c02909c0180548816938a16939093178355905190820180549096169088161790945597516002840155955160038084019190915595519190920155928601805460ff19169055855493519316926108fc82150292818181858888f19350505050158015611f3e573d6000803e3d6000fd5b50815460018301546040805191825234602083015233926001600160a01b03169187917f8a9340f7579d1b2cea009bb596c74d0a754b5ff1673d3c070f82afcac6db042a910160405180910390a45050610dab6001600455565b60116020528160005260406000208181548110611fb457600080fd5b600091825260209091206006909102018054600182015460028301546003840180546001600160a01b0390941696509194509291611ff190613ff8565b80601f016020809104026020016040519081016040528092919081815260200182805461201d90613ff8565b801561206a5780601f1061203f5761010080835404028352916020019161206a565b820191906000526020600020905b81548152906001019060200180831161204d57829003601f168201915b50505050600483015460059093015491926001600160a01b039081169216905086565b6000818152600b60209081526040808320600c8352928190208354825181850281018501909352808352606094859490939184918301828280156120fa57602002820191906000526020600020905b81546001600160a01b031681526001909101906020018083116120dc575b505050505091508080548060200260200160405190810160405280929190818152602001828054801561214c57602002820191906000526020600020905b815481526020019060010190808311612138575b5050505050905091509150915091565b60008051602061452383398151915261217481612a81565b61217c612a8b565b60008381526008602052604090206003015461010090046001600160a01b03166121de5760405162461bcd60e51b815260206004820152601360248201527213185b99081b9bdd081c9959da5cdd195c9959606a1b6044820152606401610a8c565b6000821180156121ef575060648211155b6122325760405162461bcd60e51b8152602060048201526014602482015273125b9d985b1a59081cda185c9948185b5bdd5b9d60621b6044820152606401610a8c565b60008381526008602052604090206002015461224f908390614215565b3410156122955760405162461bcd60e51b8152602060048201526014602482015273125b9cdd59999a58da595b9d081c185e5b595b9d60621b6044820152606401610a8c565b6122b13033858560405180602001604052806000815250612e61565b6000838152600960209081526040808320338452909152812080548492906122da908490614202565b90915550506000838152600b60209081526040808320805460018082018355918552838520018054336001600160a01b03199182168117909255888652600c8552838620805480850182559087528587200188905588865260118552838620845160c0810186528381528087018a81524282880190815287518089019098526008885267505552434841534560c01b888a01526060830197885230608084015260a08301959095528254808701845592895296909720875160069092020180549092166001600160a01b039091161781559351918401919091555160028301555160038201906123ca908261410b565b50608082810151600483810180546001600160a01b03199081166001600160a01b039485161790915560a09586015160059586018054831691851691909117905560008981526012602090815260408083208151998a018252308a52338a8401908152918a018c81524260608c0190815234998c01998a528254600181810185559387529486209b5194909a02909a01805486169388169390931783559051908201805490941695169490941790915594516002830155925160038201559051910155600e805484929061249f908490614202565b909155505060408051838152346020820152339185917fce81571c08c76465bdf390ad1abe80af8c51c6c4566e3485f9395f13d5ad6328910160405180910390a3600d54600e54600f5460408051938452602084019290925282820152517f30b47c3a685e507da227a870550a387d376e03da27ad5b6a1d8c7517eb2d9b2f9181900360600190a16125316001600455565b505050565b7fd9d062b29c8756d894f301c5167d214c34d627724cd7fc859ab9329c9330cf5161256081612a81565b50600655565b61257160003361193d565b6125b65760405162461bcd60e51b815260206004820152601660248201527521b0b63632b91034b9903737ba1030b71030b236b4b760511b6044820152606401610a8c565b610dab828261306b565b601260205281600052604060002081815481106125dc57600080fd5b6000918252602090912060059091020180546001820154600283015460038401546004909401546001600160a01b039384169650929091169350919085565b60086020526000908152604090208054819061263690613ff8565b80601f016020809104026020016040519081016040528092919081815260200182805461266290613ff8565b80156126af5780601f10612684576101008083540402835291602001916126af565b820191906000526020600020905b81548152906001019060200180831161269257829003601f168201915b5050506001840154600285015460038601546004909601549495919490935060ff821692506001600160a01b036101009092048216911686565b6001600160a01b03851633148061270557506127058533610914565b6127215760405162461bcd60e51b8152600401610a8c90614032565b610d4a8585858585612e61565b7f0ce23c3e399818cfee81a7ab0880f714e53d7672b08df0fa62f2843416e1ea0961275881612a81565b612760612a8b565b60008281526008602052604090206003015461010090046001600160a01b03166127c25760405162461bcd60e51b815260206004820152601360248201527213185b99081b9bdd081c9959da5cdd195c9959606a1b6044820152606401610a8c565b60008281526008602052604090206003015460ff161561281c5760405162461bcd60e51b815260206004820152601560248201527413185b9908185b1c9958591e481d995c9a599a5959605a1b6044820152606401610a8c565b60065434101561286e5760405162461bcd60e51b815260206004820152601d60248201527f496e73756666696369656e7420766572696669636174696f6e206665650000006044820152606401610a8c565b600082815260086020526040812060038101805460ff1916600117905560040180546001600160a01b03191633179055600f80543492906128b0908490614202565b9091555050604051339083907ffb9625d8f3292b4f2c77920987a97b46155b934995873c85e64429df037b005b90600090a3600d54600e54600f5460408051938452602084019290925282820152517f30b47c3a685e507da227a870550a387d376e03da27ad5b6a1d8c7517eb2d9b2f9181900360600190a1610dab6001600455565b6040805160c081018252606080825260006020830181905292820183905281018290526080810182905260a081019190915260008281526008602052604090819020815160c0810190925280548290829061298d90613ff8565b80601f01602080910402602001604051908101604052809291908181526020018280546129b990613ff8565b8015612a065780601f106129db57610100808354040283529160200191612a06565b820191906000526020600020905b8154815290600101906020018083116129e957829003601f168201915b50505091835250506001820154602082015260028201546040820152600382015460ff8116151560608301526001600160a01b036101009091048116608083015260049092015490911660a09091015292915050565b60006001600160e01b03198216637965db0b60e01b1480610ab85750610ab882613090565b610ed481336130e0565b600260045403612add5760405162461bcd60e51b815260206004820152601f60248201527f5265656e7472616e637947756172643a207265656e7472616e742063616c6c006044820152606401610a8c565b6002600455565b8151835114612b465760405162461bcd60e51b815260206004820152602860248201527f455243313135353a2069647320616e6420616d6f756e7473206c656e677468206044820152670dad2e6dac2e8c6d60c31b6064820152608401610a8c565b6001600160a01b038416612b6c5760405162461bcd60e51b8152600401610a8c9061422c565b3360005b8451811015612c53576000858281518110612b8d57612b8d614080565b602002602001015190506000858381518110612bab57612bab614080565b602090810291909101810151600084815280835260408082206001600160a01b038e168352909352919091205490915081811015612bfb5760405162461bcd60e51b8152600401610a8c90614271565b6000838152602081815260408083206001600160a01b038e8116855292528083208585039055908b16825281208054849290612c38908490614202565b9250508190555050505080612c4c906140ac565b9050612b70565b50846001600160a01b0316866001600160a01b0316826001600160a01b03167f4a39dc06d4c0dbc64b70af90fd698a233a518aa5d07e595d983b8c0526c8f7fb8787604051612ca39291906142bb565b60405180910390a4612cb9818787878787613139565b505050505050565b600082815260036020526040902060010154612cdc81612a81565b6125318383613294565b612cf0828261193d565b15610dab5760008281526003602090815260408083206001600160a01b0385168085529252808320805460ff1916905551339285917ff6391f5c32d9c69d2a47ea670b442974b53935d1edc7fd64eb21e047a839171b9190a45050565b6001600160a01b038416612dad5760405162461bcd60e51b815260206004820152602160248201527f455243313135353a206d696e7420746f20746865207a65726f206164647265736044820152607360f81b6064820152608401610a8c565b336000612db98561331a565b90506000612dc68561331a565b90506000868152602081815260408083206001600160a01b038b16845290915281208054879290612df8908490614202565b909155505060408051878152602081018790526001600160a01b03808a1692600092918716917fc3d58168c5ae7397731d063d5bbf3d657854427343f4c083240f7aacaa2d0f62910160405180910390a4612e5883600089898989613365565b50505050505050565b6001600160a01b038416612e875760405162461bcd60e51b8152600401610a8c9061422c565b336000612e938561331a565b90506000612ea08561331a565b90506000868152602081815260408083206001600160a01b038c16845290915290205485811015612ee35760405162461bcd60e51b8152600401610a8c90614271565b6000878152602081815260408083206001600160a01b038d8116855292528083208985039055908a16825281208054889290612f20908490614202565b909155505060408051888152602081018890526001600160a01b03808b16928c821692918816917fc3d58168c5ae7397731d063d5bbf3d657854427343f4c083240f7aacaa2d0f62910160405180910390a4612f80848a8a8a8a8a613365565b505050505050505050565b816001600160a01b0316836001600160a01b031603612ffe5760405162461bcd60e51b815260206004820152602960248201527f455243313135353a2073657474696e6720617070726f76616c20737461747573604482015268103337b91039b2b63360b91b6064820152608401610a8c565b6001600160a01b03838116600081815260016020908152604080832094871680845294825291829020805460ff191686151590811790915591519182527f17307eab39ab6107e8899845ad3d59bd9653f200f220920489ca2b5937696c31910160405180910390a3505050565b60008281526003602052604090206001015461308681612a81565b6125318383612ce6565b60006001600160e01b03198216636cdb3d1360e11b14806130c157506001600160e01b031982166303a24d0760e21b145b80610ab857506301ffc9a760e01b6001600160e01b0319831614610ab8565b6130ea828261193d565b610dab576130f781613420565b613102836020613432565b6040516020016131139291906142e9565b60408051601f198184030181529082905262461bcd60e51b8252610a8c91600401613704565b6001600160a01b0384163b15612cb95760405163bc197c8160e01b81526001600160a01b0385169063bc197c819061317d908990899088908890889060040161435e565b6020604051808303816000875af19250505080156131b8575060408051601f3d908101601f191682019092526131b5918101906143bc565b60015b613264576131c46143d9565b806308c379a0036131fd57506131d86143f5565b806131e357506131ff565b8060405162461bcd60e51b8152600401610a8c9190613704565b505b60405162461bcd60e51b815260206004820152603460248201527f455243313135353a207472616e7366657220746f206e6f6e2d455243313135356044820152732932b1b2b4bb32b91034b6b83632b6b2b73a32b960611b6064820152608401610a8c565b6001600160e01b0319811663bc197c8160e01b14612e585760405162461bcd60e51b8152600401610a8c9061447e565b61329e828261193d565b610dab5760008281526003602090815260408083206001600160a01b03851684529091529020805460ff191660011790556132d63390565b6001600160a01b0316816001600160a01b0316837f2f8788117e7eff1d82e926ec794901d17c78024a50270940304540a733656f0d60405160405180910390a45050565b6040805160018082528183019092526060916000919060208083019080368337019050509050828160008151811061335457613354614080565b602090810291909101015292915050565b6001600160a01b0384163b15612cb95760405163f23a6e6160e01b81526001600160a01b0385169063f23a6e61906133a990899089908890889088906004016144c6565b6020604051808303816000875af19250505080156133e4575060408051601f3d908101601f191682019092526133e1918101906143bc565b60015b6133f0576131c46143d9565b6001600160e01b0319811663f23a6e6160e01b14612e585760405162461bcd60e51b8152600401610a8c9061447e565b6060610ab86001600160a01b03831660145b60606000613441836002614215565b61344c906002614202565b6001600160401b0381111561346357613463613717565b6040519080825280601f01601f19166020018201604052801561348d576020820181803683370190505b509050600360fc1b816000815181106134a8576134a8614080565b60200101906001600160f81b031916908160001a905350600f60fb1b816001815181106134d7576134d7614080565b60200101906001600160f81b031916908160001a90535060006134fb846002614215565b613506906001614202565b90505b600181111561357e576f181899199a1a9b1b9c1cb0b131b232b360811b85600f166010811061353a5761353a614080565b1a60f81b82828151811061355057613550614080565b60200101906001600160f81b031916908160001a90535060049490941c936135778161450b565b9050613509565b5083156135cd5760405162461bcd60e51b815260206004820181905260248201527f537472696e67733a20686578206c656e67746820696e73756666696369656e746044820152606401610a8c565b9392505050565b80356001600160a01b03811681146135eb57600080fd5b919050565b6000806040838503121561360357600080fd5b61360c836135d4565b946020939093013593505050565b6001600160e01b031981168114610ed457600080fd5b60006020828403121561364257600080fd5b81356135cd8161361a565b6000806040838503121561366057600080fd5b50508035926020909101359150565b60008060006060848603121561368457600080fd5b505081359360208301359350604090920135919050565b6000602082840312156136ad57600080fd5b5035919050565b60005b838110156136cf5781810151838201526020016136b7565b50506000910152565b600081518084526136f08160208601602086016136b4565b601f01601f19169290920160200192915050565b6020815260006135cd60208301846136d8565b634e487b7160e01b600052604160045260246000fd5b601f8201601f191681016001600160401b038111828210171561375257613752613717565b6040525050565b60006001600160401b0382111561377257613772613717565b5060051b60200190565b600082601f83011261378d57600080fd5b8135602061379a82613759565b6040516137a7828261372d565b83815260059390931b85018201928281019150868411156137c757600080fd5b8286015b848110156137e257803583529183019183016137cb565b509695505050505050565b60006001600160401b0383111561380657613806613717565b60405161381d601f8501601f19166020018261372d565b80915083815284848401111561383257600080fd5b83836020830137600060208583010152509392505050565b600082601f83011261385b57600080fd5b6135cd838335602085016137ed565b600080600080600060a0868803121561388257600080fd5b61388b866135d4565b9450613899602087016135d4565b935060408601356001600160401b03808211156138b557600080fd5b6138c189838a0161377c565b945060608801359150808211156138d757600080fd5b6138e389838a0161377c565b935060808801359150808211156138f957600080fd5b506139068882890161384a565b9150509295509295909350565b6000806040838503121561392657600080fd5b82359150613936602084016135d4565b90509250929050565b6000806040838503121561395257600080fd5b82356001600160401b038082111561396957600080fd5b818501915085601f83011261397d57600080fd5b8135602061398a82613759565b604051613997828261372d565b83815260059390931b85018201928281019150898411156139b757600080fd5b948201945b838610156139dc576139cd866135d4565b825294820194908201906139bc565b965050860135925050808211156139f257600080fd5b506139ff8582860161377c565b9150509250929050565b600081518084526020808501945080840160005b83811015613a3957815187529582019590820190600101613a1d565b509495945050505050565b6020815260006135cd6020830184613a09565b600080600060608486031215613a6c57600080fd5b83356001600160401b03811115613a8257600080fd5b8401601f81018613613a9357600080fd5b613aa2868235602084016137ed565b9660208601359650604090950135949350505050565b600080600060608486031215613acd57600080fd5b83359250613add602085016135d4565b9150604084013590509250925092565b602080825282518282018190526000919060409081850190868401855b82811015613b5a57815180516001600160a01b0390811686528782015116878601528581015186860152606080820151908601526080908101519085015260a09093019290850190600101613b0a565b5091979650505050505050565b60008060408385031215613b7a57600080fd5b613b83836135d4565b915060208301358015158114613b9857600080fd5b809150509250929050565b60006020808301818452808551808352604092508286019150828160051b87010184880160005b83811015613c4457603f19898403018552815160c060018060a01b03808351168652898301518a87015288830151898701526060808401518382890152613c13848901826136d8565b6080868101518516908a015260a0958601519093169490970193909352968901969450505090860190600101613bca565b509098975050505050505050565b60008083601f840112613c6457600080fd5b5081356001600160401b03811115613c7b57600080fd5b6020830191508360208260051b8501011115613c9657600080fd5b9250929050565b60008083601f840112613caf57600080fd5b5081356001600160401b03811115613cc657600080fd5b602083019150836020828501011115613c9657600080fd5b60008060008060008060008060a0898b031215613cfa57600080fd5b613d03896135d4565b9750613d1160208a016135d4565b965060408901356001600160401b0380821115613d2d57600080fd5b613d398c838d01613c52565b909850965060608b0135915080821115613d5257600080fd5b613d5e8c838d01613c52565b909650945060808b0135915080821115613d7757600080fd5b50613d848b828c01613c9d565b999c989b5096995094979396929594505050565b600060018060a01b03808916835287602084015286604084015260c06060840152613dc660c08401876136d8565b94811660808401529290921660a09091015250949350505050565b604080825283519082018190526000906020906060840190828701845b82811015613e235781516001600160a01b031684529284019290840190600101613dfe565b50505083810382850152613e378186613a09565b9695505050505050565b60c081526000613e5460c08301896136d8565b602083019790975250604081019490945291151560608401526001600160a01b0390811660808401521660a090910152919050565b60008060408385031215613e9c57600080fd5b613ea5836135d4565b9150613936602084016135d4565b60008060008060008060a08789031215613ecc57600080fd5b613ed5876135d4565b9550613ee3602088016135d4565b9450604087013593506060870135925060808701356001600160401b03811115613f0c57600080fd5b613f1889828a01613c9d565b979a9699509497509295939492505050565b600080600080600060a08688031215613f4257600080fd5b613f4b866135d4565b9450613f59602087016135d4565b9350604086013592506060860135915060808601356001600160401b03811115613f8257600080fd5b6139068882890161384a565b602081526000825160c06020840152613faa60e08401826136d8565b90506020840151604084015260408401516060840152606084015115156080840152608084015160018060a01b0380821660a08601528060a08701511660c086015250508091505092915050565b600181811c9082168061400c57607f821691505b60208210810361402c57634e487b7160e01b600052602260045260246000fd5b50919050565b6020808252602e908201527f455243313135353a2063616c6c6572206973206e6f7420746f6b656e206f776e60408201526d195c881bdc88185c1c1c9bdd995960921b606082015260800190565b634e487b7160e01b600052603260045260246000fd5b634e487b7160e01b600052601160045260246000fd5b6000600182016140be576140be614096565b5060010190565b601f82111561253157600081815260208120601f850160051c810160208610156140ec5750805b601f850160051c820191505b81811015612cb9578281556001016140f8565b81516001600160401b0381111561412457614124613717565b614138816141328454613ff8565b846140c5565b602080601f83116001811461416d57600084156141555750858301515b600019600386901b1c1916600185901b178555612cb9565b600085815260208120601f198616915b8281101561419c5788860151825594840194600190910190840161417d565b50858210156141ba5787850151600019600388901b60f8161c191681555b5050505050600190811b01905550565b6060815260006141dd60608301866136d8565b60208301949094525060400152919050565b81810381811115610ab857610ab8614096565b80820180821115610ab857610ab8614096565b8082028115828204841417610ab857610ab8614096565b60208082526025908201527f455243313135353a207472616e7366657220746f20746865207a65726f206164604082015264647265737360d81b606082015260800190565b6020808252602a908201527f455243313135353a20696e73756666696369656e742062616c616e636520666f60408201526939103a3930b739b332b960b11b606082015260800190565b6040815260006142ce6040830185613a09565b82810360208401526142e08185613a09565b95945050505050565b7f416363657373436f6e74726f6c3a206163636f756e74200000000000000000008152600083516143218160178501602088016136b4565b7001034b99036b4b9b9b4b733903937b6329607d1b60179184019182015283516143528160288401602088016136b4565b01602801949350505050565b6001600160a01b0386811682528516602082015260a06040820181905260009061438a90830186613a09565b828103606084015261439c8186613a09565b905082810360808401526143b081856136d8565b98975050505050505050565b6000602082840312156143ce57600080fd5b81516135cd8161361a565b600060033d11156143f25760046000803e5060005160e01c5b90565b600060443d10156144035790565b6040516003193d81016004833e81513d6001600160401b03816024840111818411171561443257505050505090565b828501915081518181111561444a5750505050505090565b843d87010160208285010111156144645750505050505090565b6144736020828601018761372d565b509095945050505050565b60208082526028908201527f455243313135353a204552433131353552656365697665722072656a656374656040820152676420746f6b656e7360c01b606082015260800190565b6001600160a01b03868116825285166020820152604081018490526060810183905260a060808201819052600090614500908301846136d8565b979650505050505050565b60008161451a5761451a614096565b50600019019056fea5ff3ec7a96cdbba4d2d5172d66bbc73c6db3885f29b21be5da9fa7a7c025232a2646970667358221220c67dff676779e56d2e4995aeedc72b4774fe000e356462fb1565afe7eb9f2c7864736f6c63430008140033",
  "linkReferences": {},
  "deployedLinkReferences": {}
}